:100000000C94AC000C9400000C9400000C940000C4
:100010000C9400000C9400000C9400000C94000060
:100020000C9400000C9400000C9400000C94000050
:100030000C9400000C9400000C9400000C94000040
:100040000C9400000C9400000C9400000C94000030
:040050000C9400000C
:10015800BFE5BDBFB4E0BEBF0E9423012F923F920E
:100168004F925F926F92BFEFB7BBB3E3B9B9B0E0FC
:10017800B0BD7FDF25E01FE002EF0A95F1F71A9581
:10018800E1F72A95D1F799DF013009F055C0BAE0B7
:100198006B2EB0E64B2EB0E05B2EB2E62B2EB0E015
:1001A8003B2E90DF00916200013109F045C00091BB
:1001B8006300013009F040C000916400003009F08C
:1001C8003BC000916500053509F036C0B1E1B09338
:1001D8006200B1E0B0936300B4E0B0936400B0E0B3
:1001E800B0936500B0E0B0936600B1E0B0936700EB
:1001F800B3E2B0936800B9E5B0936900BAEAB09386
:100208006A002090620024DF2090630021DF2090A4
:1002180064001EDF209065001BDF2090660018DF59
:100228002090670015DF2090680012DF2090690099
:0C0238000FDF20906A000CDFA6CFFFCF84
:0A00C2000BB0002707FC039508951A
:1000CC0020E000E0302F662009F43CC0BFEF6B1637
:1000DC0019F0062D0150602EEEDF003009F4FCCF34
:1000EC00B3DF102FE22FF0E0E20DF31D0083022F9F
:1000FC000F5F202FE32FF0E0E40DF51D00810117B9
:10010C0021F4032F0F5F302F0AC030E0F201008181
:10011C00011729F4032F0F5F102F312F00C0E32F8D
:10012C00F0E0E40DF51D0081003059F4022F10E0D1
:10013C00031BB0E01B0BF801E20DF31DB0E0B08324
:0C014C0004C0C1CFF101B0E0B083089501
:040054000CB108954E
:10005800BBB1B5FD01C0FCCFBBB1B6FF03C0BBB19E
:08006800B064BBB92CB8089587
:0A00700005900D920197E1F7089545
:10007A00BCE2B093CA00B0E0B093CB00BAE2B0934E
:10008A00C800B0E0B093C900B1E6B093C600B0E0D2
:10009A00B093C700BFEFB093CC00BFEFB093CD00D1
:1000AA00B1B3BE7FB1BBB1B3B260B1BB0AB1086133
:0800BA000AB9B6E8B0BD0895D3
:10024600A0E6B0E0E4E4F2E082E090E00E9438004C
:02025600089509
:02024400200098
:00000001FF
